:020000040000FA
:0400000037EF00F0E6
:020004000000FA
:080008002EEF00F00F0EC16E97
:10001000070EB46E620ED36E929092929294929664
:100020009298929A929C949094929494949C949E78
:100030009590959295949690969296949596939E77
:100040009598959A959C959E1200070ED56EFF0E79
:10005000D76EB20ED66EF294F28A1200F2A406D0D7
:10006000F29433D0FF0ED76EB20ED66E1000CEDFF4
:1000700031D8EBDFD58EF28E5AD8010E04D854D881
:10008000010E01D8F9D7256E4AEC00F0252E44EF79
:1000900000F01200FA0E57EC00F0FA0E57EC00F0E8
:1000A000FA0E57EC00F0FA0E57EC00F01200236E37
:1000B0005EEC00F0232E58EF00F01200F70E246ED5
:1000C0000000242E60EF00F01200050E206E202E9E
:1000D0003BD812008C968A8E200EE9DF05D8280EB8
:1000E00020D80F0E1ED81200839E839C838A83988B
:1000F0008A9E010EDCDF8A8E12008C8601D81200E7
:10010000266E265003D8263801D81200F00B276E31
:1001100083500F0B2710836E8A9E010EC8DF8A8ED4
:1001200012008C96EDDF1200010EFBDF12004C0E68
:10013000E4DF4C0EE2DF550EE0DF560EDEDF490E47
:10014000DCDF410EDADF12008988010EB0DF899A08
:10015000899C8B908D808D928D948998010EA7DF5C
:100160008988010EA4DF899A899C8B808D808D926D
:100170008D948998010E9BDF8988010E98DF899AFA
:10018000898C8B908D808D928D948998010E8FDF54
:100190008988010E8CDF899A898C8B808D808D9265
:1001A0008D948998010E83DF8988010E80DF898A0A
:1001B000899C8B908D808D928D948998010E77DF2C
:1001C0008988010E74DF8B928B948B8C8D908D823D
:1001D0008D948998010E6BDF8988010E68DF8B9200
:1001E0008B948B9C8D908D828D948998010E5FDF0E
:1001F0008988010E5CDF898A898C8B808D808D9245
:100200008D948998010E53DF8988010E50DF898A09
:10021000898C8B908D808D928D948998010E47DF0B
:100220008988010E44DF898A899C8B808D808D921C
:100230008D948998010E3BDF8988010E38DF8B92FF
:100240008B848B9C8D908D828D948998010E2FDFED
:100250008988010E2CDF8B928B848B8C8D908D8204
:100260008D948998010E23DF8988010E20DF8B820F
:100270008B948B9C8D908D828D948998010E17DFC5
:100280008988010E14DF8B828B948B8C8D908D82EC
:100290008D948998010E0BDF8988010E08DF8B820F
:1002A0008B848B9C8D908D828D948998010EFFDEBE
:1002B0008988010EFCDE8B9E8C808C828D908D92C5
:1002C0008D848998010EF3DE8988010EF0DE8B9E05
:1002D0008C808C928D908D928D848998010EE7DEB2
:1002E0008988010EE4DE8B9E8C908C828D908D929D
:1002F0008D848998010EDBDE8988010ED8DE8B9E05
:100300008C908C928D908D928D848998010ECFDE89
:100310008988010ECCDE8B828B848B8C8D908D82B4
:100320008D948998010EC3DE8988010EC0DE8B8E04
:100330008C908C928D908D928D848998010EB7DE71
:100340008988010EB4DE8B8E8C908C828D908D927C
:100350008D848998010EABDE8988010EA8DE8B8E14
:100360008C808C928D908D928D848998010E9FDE69
:100370008988010E9CDE8B8E8C808C828D908D9274
:100380008D8489988988010E92DE8C84899889866B
:10039000010E8DDE899A899C8B908D808D928D9433
:1003A0008996010E84DE8986010E81DE899A899CF8
:1003B0008B808D808D928D948996010E78DE898652
:1003C000010E75DE899A898C8B908D808D928D942B
:1003D0008996010E6CDE8986010E69DE899A898C08
:1003E0008B808D808D928D948996010E60DE89863A
:1003F000010E5DDE898A899C8B908D808D928D9413
:100400008996010E54DE8986010E51DE8B928B9403
:100410008B8C8D908D828D948996010E48DE898615
:10042000010E45DE8B928B948B9C8D908D828D94EA
:100430008996010E3CDE8986010E39DE898A898C17
:100440008B808D808D928D948996010E30DE898609
:10045000010E2DDE898A898C8B908D808D928D94F2
:100460008996010E24DE8986010E21DE898A899C07
:100470008B808D808D928D948996010E18DE8986F1
:10048000010E15DE8B928B848B9C8D908D828D94CA
:100490008996010E0CDE8986010E09DE8B928B8413
:1004A0008B8C8D908D828D948996010E00DE8986CD
:1004B000010EFDDD8B828B948B9C8D908D828D94B3
:1004C0008996010EF4DD8986010EF1DD8B828B9415
:1004D0008B8C8D908D828D948996010EE8DD8986B6
:1004E000010EE5DD8B828B848B9C8D908D828D94AB
:1004F0008996010EDCDD8986010ED9DD8B9E8C800C
:100500008C828D908D928D848996010ED0DD8986A6
:10051000010ECDDD8B9E8C808C928D908D928D8482
:100520008996010EC4DD8986010EC1DD8B9E8C90FB
:100530008C828D908D928D848996010EB8DD89868E
:10054000010EB5DD8B9E8C908C928D908D928D845A
:100550008996010EACDD8986010EA9DD8B828B8424
:100560008B8C8D908D828D948996010EA0DD89866D
:10057000010E9DDD8B8E8C908C928D908D928D8452
:100580008996010E94DD8986010E91DD8B8E8C900B
:100590008C828D908D928D848996010E88DD89865E
:1005A000010E85DD8B8E8C808C928D908D928D844A
:1005B0008996010E7CDD8986010E79DD8B8E8C801B
:1005C0008C828D908D928D8489968986010E6FDD47
:1005D0008C8489968984010E6ADD899A899C8B9026
:1005E0008D808D928D948994010E61DD8984010E38
:1005F0005EDD899A899C8B808D808D928D94899403
:10060000010E55DD8984010E52DD899A898C8B900B
:100610008D808D928D948994010E49DD8984010E1F
:1006200046DD899A898C8B808D808D928D948994FA
:10063000010E3DDD8984010E3ADD898A899C8B900B
:100640008D808D928D948994010E31DD8984010E07
:100650002EDD8B928B948B8C8D908D828D948994D2
:10066000010E25DD8984010E22DD8B928B948B9CFB
:100670008D908D828D948994010E19DD8984010EEF
:1006800016DD898A898C8B808D808D928D948994DA
:10069000010E0DDD8984010E0ADD898A898C8B901B
:1006A0008D808D928D948994010E01DD8984010ED7
:1006B000FEDC898A899C8B808D808D928D948994B3
:1006C000010EF5DC8984010EF2DC8B928B848B9C0D
:1006D0008D908D828D948994010EE9DC8984010EC0
:1006E000E6DC8B928B848B8C8D908D828D9489949B
:1006F000010EDDDC8984010EDADC8B828B948B9C0D
:100700008D908D828D948994010ED1DC8984010EA7
:10071000CEDC8B828B948B8C8D908D828D94899482
:10072000010EC5DC8984010EC2DC8B828B848B9C1C
:100730008D908D828D948994010EB9DC8984010E8F
:10074000B6DC8B9E8C808C828D908D928D8489946A
:10075000010EADDC8984010EAADC8B9E8C808C920C
:100760008D908D928D848994010EA1DC8984010E77
:100770009EDC8B9E8C908C828D908D928D84899442
:10078000010E95DC8984010E92DC8B9E8C908C92FC
:100790008D908D928D848994010E89DC8984010E5F
:1007A00086DC8B828B848B8C8D908D828D9489944A
:1007B000010E7DDC8984010E7ADC8B8E8C908C920C
:1007C0008D908D928D848994010E71DC8984010E47
:1007D0006EDC8B8E8C908C828D908D928D84899422
:1007E000010E65DC8984010E62DC8B8E8C808C921C
:1007F0008D908D928D848994010E59DC8984010E2F
:1008000056DC8B8E8C808C828D908D928D84899419
:0C0810008984010E4CDC8C848994120059
:020000040030CA
:0100010008F6
:0100020018E5
:010003001EDE
:0100050001F9
:010006008178
:010008000FE8
:01000900C036
:00000001FF
